:020000040800F2
:1000000000C000200D4D0008AB3A0008AD3A0008D2
:10001000AF3A0008B13A0008B33A00080000000007
:10002000000000000000000000000000B53A0008D9
:10003000B73A000800000000B93A0008BB3A0008CF
:10004000554D0008554D0008554D0008554D000808
:10005000554D0008554D0008554D0008554D0008F8
:10006000554D0008554D0008554D00085136000803
:10007000C93A0008D93A0008554D0008554D000806
:10008000554D0008554D0008554D0008554D0008C8
:10009000554D0008554D0008554D0008554D0008B8
:1000A000554D0008554D0008554D0008554D0008A8
:1000B000554D0008554D0008554D0008554D000898
:1000C000554D0008554D0008554D0008554D000888
:1000D000554D0008554D0008554D0008E93A0008F7
:1000E000554D0008554D0008554D0008554D000868
:1000F000554D0008554D0008554D0008554D000858
:10010000554D0008554D0008554D0008554D000847
:10011000554D0008554D0008554D0008554D000837
:10012000554D0008554D0008554D0008554D000827
:1001300000000000000000000000000000000000BF
:1001400000000000000000000000000000000000AF
:10015000000000000000000000000000000000009F
:10016000000000000000000000000000000000008F
:10017000000000000000000000000000000000007F
:10018000000000000000000000000000000000006F
:10019000000000000000000000000000000000005F
:1001A000000000000000000000000000000000004F
:1001B000000000000000000000000000000000003F
:1001C000000000000000000000000000000000002F
:1001D000000000000000000000000000000000001F
:0401E0005FF8E0F1F3
:1001E400044B05481B1A062B02D9044B03B11847CC
:1001F400704700BF17010020140100200000000018
:1002040005490648091A891001EBD171491002D039
:10021400034B03B118477047140100201401002058
:100224000000000010B5064C237843B9FFF7D8FF4F
:10023400044B13B10448AFF300800123237010BDB5
:100244001401002000000000584D000808B5084BB8
:100254001BB108490848AFF300800848036813B984
:10026400BDE80840CCE7064B002BF9D09847F7E7E8
:100274000000000018010020584D0008140100205F
:100284000000000070B50F4E0F4D761BB61018BF5E
:10029400002405D0013455F8043B9847A642F9D10F
:1002A4000A4E0B4D04F056FD761BB61018BF002401
:1002B40006D0013455F8043B9847A642F9D170BDE5
:1002C40070BD00BF645500086455000868550008F7
:1002D40064550008844641EA000313F0030349D13E
:1002E400403A23D30B6803604B6843608B68836098
:1002F400CB68C3600B6903614B6943618B6983619C
:10030400CB69C3610B6A03624B6A43628B6A836283
:10031400CB6AC3620B6B03634B6B43638B6B83636B
:10032400CB6BC36340304031403ADBD230320BD325
:100334000B6803604B6843608B688360CB68C36061
:1003440010301031103AF3D20C3205D351F8043B7B
:1003540040F8043B043AF9D2043208D0D2071CBF57
:1003640011F8013B00F8013B01D30B880380604680
:10037400704700BF082A13D38B07B1D010F00303D2
:10038400AED0C3F10403D21ADB071CBF11F8013B42
:1003940000F8013BA4D331F8023B20F8023B9FE76D
:1003A400043AD9D3013A11F8013B00F8013BF9D2E0
:1003B4000B7803704B7843708B788370604670477A
:1003C40082B0084B1B68084AA2FB03235B0A00FBAC
:1003D40003F0019000BF019B5A1E0192002BF9D13A
:1003E40002B0704700000020D34D621070B582B097
:1003F4000446036813F0010F3DD0AC4B5B6803F077
:100404000C03042B2ED0A94B5B6803F00C03082BC0
:1004140023D06368B3F5803F51D0002B55D103F14D
:10042400804303F504331A6822F480321A601A6890
:1004340022F480221A606368002B60D001F02CF84B
:1004440005469A4B1B6813F4003F14D101F024F8BD
:10045400401B6428F5D90320AFE1944B5B6813F487
:10046400803FD6D0914B1B6813F4003F03D06368E0
:10047400002B00F09F81236813F0020F65D08B4B93
:100484005B6813F00C0F4ED0884B5B6803F00C03D1
:10049400082B43D02369002B79D00122844B1A60A6
:1004A40000F0FAFF0546814B1B6813F0020F65D17B
:1004B40000F0F2FF401B0228F5D903207DE17B4ABE
:1004C400136843F480331360B5E7B3F5A02F09D064
:1004D400764B1A6822F480321A601A6822F4802259
:1004E4001A60A8E703F18043A3F53C331A6842F489
:1004F40080221A601A6842F480321A609BE700F086
:10050400CBFF0546694B1B6813F4003FB3D000F0E2
:10051400C3FF401B6428F5D903204EE1634B5B689D
:1005240013F4803FB6D1614B1B6813F0020F04D063
:100534002369012B01D001203FE15C4A136823F0B9
:10054400F803616943EAC1031360236813F0080FD9
:1005540032D0A369002B6ED00122564B1A6000F0F2
:100564009BFF0546514B5B6A13F0020F21D100F04B
:1005740093FF401B0228F5D903201EE14B4A136860
:1005840023F0F803616943EAC1031360DDE7002245
:10059400474B1A6000F080FF0546444B1B6813F07C
:1005A400020FD2D000F078FF401B0228F5D90320B7
:1005B40003E10120FFF704FF236813F0040F00F0A8
:1005C40099803A4BDB6913F0805F46D1374BDA6987
:1005D40042F08052DA61DB6903F080530193019B9E
:1005E4000125354B1B6813F4807F38D0E368012B59
:1005F40049D0002B4DD103F1804303F504331A6A2B
:1006040022F001021A621A6A22F004021A62E368F2
:10061400002B5DD000F040FF0646244B1B6A13F00C
:10062400020F66D100F038FF801B41F288339842F4
:10063400F3D90320C1E000221E4B1A6000F02CFF06
:1006440005461A4B5B6A13F0020FB5D000F024FF85
:10065400401B0228F5D90320AFE00025C1E7164A64
:10066400136843F48073136000F016FF0646124BC0
:100674001B6813F4807FB9D100F00EFF801B64283F
:10068400F5D9032099E0094A136A43F00103136280
:10069400BDE7052B12D0054B1A6A22F001021A623B
:1006A4001A6A22F004021A62B1E700BF0010024085
:1006B400000042428004424200700040414B1A6AEA
:1006C40042F004021A621A6A42F001021A629EE7B8
:1006D40000F0E2FE06463B4B1B6A13F0020F08D003
:1006E40000F0DAFE801B41F288339842F3D90320EC
:1006F40063E0E5B9E369002B5ED0324A526802F048
:100704000C02082A5BD0022B17D000222E4B1A6051
:1007140000F0C2FE04462B4B1B6813F0007F47D049
:1007240000F0BAFE001B0228F5D9032045E0254A53
:10073400D36923F08053D361DCE70022224B1A6093
:1007440000F0AAFE05461F4B1B6813F0007F06D07D
:1007540000F0A2FE401B0228F5D903202DE0236AF5
:10076400B3F5803F1AD017494B6823F47413226AF7
:10077400606A024313434B600122134B1A6000F07A
:100784008BFE04460F4B1B6813F0007F0ED100F064
:1007940083FE001B0228F5D903200EE0094A5368A2
:1007A40023F40033A1680B435360DCE7002004E02A
:1007B400002002E0012000E0002002B070BD012012
:1007C400FBE700BF001002406000424210B586B053
:1007D400154C94E80F000DF1180E0EE90F00238A52
:1007E400ADF80430114B5B6803F00C02082A18D1F1
:1007F400C3F38342724412F8100C13F4803F03D104
:100804000B4B03FB00F00DE0084B5B68C3F3404364
:10081400734413F8142C074BB3FBF2F303FB00F0FF
:1008240000E0044806B010BD704D000800100240FE
:1008340000093D0000127A00594B1B6803F00703BE
:100844008B420CD2564A136823F007030B43136000
:10085400136803F00703994201D00120704770B573
:10086400036813F0020F06D04E4A536823F0F003D6
:100874008468234353600D460446036813F0010F54
:1008840052D04368012B23D0022B28D0454A12684A
:1008940012F0020F00F0828042494A6822F00302FB
:1008A40013434B6000F0F8FD06466368012B1DD02E
:1008B400022B2AD03B4B5B6813F00C0F34D000F0B2
:1008C400EBFD801B41F288339842F3D9032070BDBD
:1008D400344A126812F4003FDED1012070BD314A5F
:1008E400126812F0007FD7D1012070BD2D4B5B68D8
:1008F40003F00C03042B17D000F0CEFD801B41F253
:1009040088339842F2D9032070BD264B5B6803F00C
:100914000C03082B08D000F0BFFD801B41F2883384
:100924009842F2D9032070BD1D4B1B6803F00703E6
:100934009D420CD21A4A136823F007032B43136019
:10094400136803F007039D4201D0012070BD2368A2
:1009540013F0040F06D0134A536823F4E063E168EC
:100964000B435360236813F0080F07D00D4A5368F4
:1009740023F46053216943EAC1035360FFF726FF60
:10098400084B5B68C3F30313074AD35CD840074B97
:100994001860002000F050FD002070BD012070BDE3
:1009A4000020024000100240844D00080000002096
:1009B400014B1868704700BF0000002008B5FFF71E
:1009C400F7FF044B5B68C3F30223034AD35CD840AC
:1009D40008BD00BF00100240944D000808B5FFF7A1
:1009E400E7FF044B5B68C3F3C223034AD35CD840DC
:1009F40008BD00BF00100240944D000830B4036AE3
:100A040023F001030362036A4468826922F07302DB
:100A14000D682A4323F002038D682B43114DA8422D
:100A240011D005F50065A8420DD00E4DA84211D095
:100A340005F50065A8420DD0446082614A684263AE
:100A4400036230BC704723F00803CD682B4323F0C6
:100A54000403EAE724F440744D692C438D692C4364
:100A6400EAE700BF002C014030B4036A23F480732A
:100A74000362036A4468C26922F073020D682A4360
:100A840023F400738D6843EA0523134DA84211D063
:100A940005F50065A8420DD00F4DA84212D005F50A
:100AA4000065A8420ED04460C2614A68C263036212
:100AB40030BC704723F40063CD6843EA052323F474
:100AC4008063E9E724F440544D6944EA05148D69D0
:100AD40044EA0514E7E700BF002C014030B4036A80
:100AE40023F480530362036A4468C26922F4E64231
:100AF4000D6842EA052223F400538D6843EA053366
:100B0400094DA8420AD005F50065A84206D0446004
:100B1400C2614A680264036230BC704724F48044B2
:100B24004D6944EA8514F2E7002C014010B4036ACD
:100B3400046A24F001040462846924F0F00444EAA1
:100B4400021223F00A030B438261036210BC704754
:100B540010B4036A23F0100303628469036A24F463
:100B6400704444EA023223F0A00343EA0113826191
:100B7400036210BC704710B4846824F47F4442EAD2
:100B8400032319430C43846010BC704710B50268FA
:100B9400936823F070034C68234323F007030C6825
:100BA400234393604B68502B1FD00AD9602B22D06B
:100BB400702B25D10B698A68C9680068FFF7DBFFD1
:100BC40010BD402B10D103681C6A1A6A22F001027E
:100BD4001A620268936923F0F003096943EA011376
:100BE400936103681C6210BD10BD0A6989680068BE
:100BF400FFF79CFF10BD0A6989680068FFF7A8FF2A
:100C040010BD704738B590F83C30012B01D102205B
:100C140038BD0446012580F83C50022380F83D305D
:100C2400FFF7B4FF2268D36823F04003D36022683F
:100C3400D36823F48043D36084F83D50002084F8C3
:100C44003C0038BD0368254A904212D002F5006288
:100C540090420ED0B0F1804F0BD0A2F59832904262
:100C640007D002F58062904203D002F58062904280
:100C740003D123F070034A681343184A904212D0F8
:100C840002F5006290420ED0B0F1804F0BD0A2F575
:100C94009832904207D002F58062904203D002F568
:100CA4008062904203D123F44073CA68134323F053
:100CB40080034A69134303608B68C3620B688362D1
:100CC400064B984206D003F50063984202D00123F4
:100CD400436170470B690363F9E700BF002C0140CF
:100CE400A8B110B5044690F83D305BB1022384F8F6
:100CF4003D30211D2068FFF7A5FF012384F83D3016
:100D0400002010BD80F83C30FFF77BFFEEE70120A8
:100D14007047000030B4036A23F010030362036ACF
:100D24004468826922F4E6420D6842EA052223F00F
:100D340020038D6843EA0513124DA84211D005F52E
:100D44000065A8420DD00F4DA84212D005F50065EC
:100D5400A8420ED0446082614A688263036230BC58
:100D6400704723F08003CD6843EA051323F0400362
:100D7400E9E724F440644D6944EA85048D6944EA52
:100D84008504E7E7002C014038B590F83C30012B8E
:100D940066D00D460446012380F83C30022380F8D7
:100DA4003D300C2A1AD8DFE802F007191919201966
:100DB40019193419191947000068FFF71FFE226832
:100DC400936943F0080393612268936923F0040351
:100DD40093612268936929690B439361012384F821
:100DE4003D30002084F83C0038BD0068FFF792FFD6
:100DF4002268936943F4006393612268936923F43E
:100E04008063936122689369296943EA01239361AA
:100E1400E4E70068FFF728FE2268D36943F008037B
:100E2400D3612268D36923F00403D3612268D369B0
:100E340029690B43D361D1E70068FFF74FFE2268AD
:100E4400D36943F40063D3612268D36923F48063D4
:100E5400D3612268D369296943EA0123D361BDE7D9
:100E6400022038BD10B4012303FA01F4036A23EA13
:100E740004030362036A8A401343036210BC70478D
:100E840010B5044601220068FFF7ECFF23680C4A02
:100E9400934212D002F5006293420CD000221AB1A0
:100EA4005A6C42F400425A642268136843F0010306
:100EB4001360002010BD0122F1E70122EFE700BF1B
:100EC400002C014010B4042303FA01F4036A23EA5A
:100ED40004030362036A8A401343036210BC70472D
:100EE40010B5044604220068FFF7ECFF2268536C37
:100EF40043F4004353642268136843F0010313600E
:100F0400002010BD90F83C30012B25D0012380F83F
:100F14003C30CB6823F440738A68134323F4806322
:100F24004A68134323F400630A68134323F4805389
:100F34000A69134323F400534A69134323F4804397
:100F44008A69134323F40043134302685364002360
:100F540080F83C30184670470220704790F83C30C7
:100F6400012B22D030B4012280F83C20022380F8E7
:100F74003D300468636823F0700363600468636849
:100F84000D682B4363600468A36823F08003A360A7
:100F94000468A36849680B43A36080F83D200023DC
:100FA40080F83C30184630BC70470220704700007F
:100FB400034690F82420012A20D0012280F824201E
:100FC4000268906810F0010F07D10D48806810F096
:100FD400010F02D10B48824208D09A6A42F02002E3
:100FE4009A620120002283F824207047506820F47C
:100FF40070200968014351600020F3E70220704724
:101004000028014000240140074AD36823F4E06328
:101014001B041B0C000200F4E060184340F0BF60A6
:1010240040F40030D060704700ED00E030B4164B5F
:10103400DB68C3F30223C3F10704042C28BF042490
:101044001D1D062D17D9033B012505FA04F4013CA7
:101054002140994005FA03F3013B1340194300284A
:101064000BDB0901C9B200F1604000F5614080F872
:10107400001330BC70470023E6E700F00F000901BD
:10108400C9B2024B1954F4E700ED00E014ED00E09E
:10109400420900F01F00012303FA00F0014B43F85A
:1010A4002200704700E100E00138B0F1807F0AD2ED
:1010B400064B5860F021064A82F8231000209860FD
:1010C40007221A6070470120704700BF10E000E05B
:1010D40000ED00E0042805D0054A136823F004035A
:1010E40013607047024A136843F0040313607047A7
:1010F40010E000E0704708B5FFF7FCFF08BD0000F2
:10110400F0B583B00026344679E0002D00F0A980C4
:10111400012D00D1CE68FF2B00F2B7808646FF2B4D
:1011240000F2B680A500DEF800200F27AF4022EAC7
:10113400070206FA05F52A43CEF800204A6812F0A1
:10114400805F5BD0674A956945F0010595619269B6
:1011540002F001020192019AA208971C624D55F80F
:10116400275004F003074FEA870E0F2707FA0EF7FC
:1011740025EA07055D4FB84200F0908007F58067C7
:10118400B84200F08D8007F58067B84200F08A808D
:1011940007F58067B84200F0878007F58067B8429A
:1011A40000F0848007F58067B84275D0062707FAF7
:1011B4000EF73D4302324C4F47F822504A6812F46E
:1011C400803F75D04A4D2A681A432A604A6812F44F
:1011D400003F73D0464D6A681A436A604A6812F445
:1011E400801F71D0424DAA681A43AA604A6812F45B
:1011F400001F6FD03E4DEA681343EB6001340F2C9F
:101204006ED80122A2400B6813409A42F6D14D6871
:10121400122D30D00BD8022D2AD07FF676AF032DB5
:101224002FD0112D7FF477AFCE68043673E7314F9A
:10123400BD4216D00CD9304FBD4212D007F58037CD
:10124400BD420ED0A7F58017BD427FF464AF08E01D
:10125400A7F58017BD4204D007F58037BD427FF45F
:101264005AAF8D687DB1012D08D04261082652E73E
:10127400CE6808364FE7CE680C364CE70261082684
:1012840049E7002647E7042645E700F1040E46E750
:10129400A4F10805AD0046E7052788E7002786E79F
:1012A400012784E7022782E7032780E704277EE7F4
:1012B4000F4D2A6822EA03022A6087E70C4D6A6808
:1012C40022EA03026A6089E7094DAA6822EA030256
:1012D400AA608BE7064DEA6822EA0303EB608DE718
:1012E40003B0F0BD001002400000014000080140BE
:1012F40000040140000021100000311083681942ED
:1013040001D1002070470120704712B9090401611E
:10131400704701617047C3685940C160704700005D
:1013240070B582B00446036813F0010F34D03E4B0D
:10133400DB6913F0805F48D13B4BDA6942F080529D
:10134400DA61DB6903F080530193019B0125374B7C
:101354001B6813F4807F3AD0334B1B6A13F4407339
:1013640011D0626802F4407293420CD02E4A136A80
:1013740023F440702E4901260E6000260E60106290
:1013840013F0010F37D1284A136A23F440736168BC
:101394000B431362002D3FD1236813F0020F06D0D4
:1013A400214A536823F44043A1680B4353602368E4
:1013B40013F0100F35D01C4A536823F4800361697D
:1013C4000B435360002002B070BD0025BFE7174AED
:1013D400136843F48073136000F05EF80646134B01
:1013E4001B6813F4807FB7D100F056F8801B642883
:1013F400F5D90320E7E700F04FF806460A4B1B6ACD
:1014040013F0020FBFD100F047F8801B41F288337C
:101414009842F3D90320D6E7D36923F08053D361EC
:10142400BAE70020CFE700BF001002400070004080
:10143400400442427047000010B50446074B186848
:10144400074BA3FB00308009FFF72EFE0022214644
:101454004FF0FF30FFF7EAFD002010BD0000002030
:10146400D34D621008B5074A136843F010031360A4
:101474000320FFF7C9FD0020FFF7DEFFFFF7DAFFC7
:10148400002008BD00200240024A136801331360A3
:10149400704700BFDC010020014B1868704700BF93
:1014A400DC01002030B583B00190FFF7F5FF05465D
:1014B400019CB4F1FF3F00D00134FFF7EDFF401B66
:1014C400A042FAD303B030BD7047000030B482B0FC
:1014D4000023019390F82430012B00F08B80024606
:1014E400012380F824304B68062B29D80568686BE3
:1014F40003EB8303053B1F249C4020EA04000C6893
:1015040004FA03F303436B630B68092B38D915689A
:10151400E86803EB43031E3B07249C4020EA0400D5
:101524008C6804FA03F30343EB600B68103B012B54
:1015340034D90020002382F8243002B030BC704734
:101544000C2B0ED80568286B03EB8303233B1F2465
:101554009C4020EA04000C6804FA03F303432B6361
:10156400D2E70568E86A03EB8303413B1F249C40F0
:1015740020EA04000C6804FA03F30343EB62C3E7B4
:101584001568286903EB430307249C4020EA040000
:101594008C6804FA03F303432B61C6E71368164807
:1015A400834205D0936A43F0200393620120C1E78C
:1015B400986810F4000F1BD1986840F400009860FC
:1015C4000B68102B01D00020B4E70C4B1B680C49AE
:1015D400A1FB03139B0C03EB83035900019102E06D
:1015E400019B013B0193019B002BF9D10020A1E752
:1015F40000209FE70220A0E7002401400000002013
:1016040083DE1B4330B583B00023019303689A68DB
:1016140012F0010F2ED19A6842F001029A60174B22
:101624001B68174AA2FB03239B0C019302E0019B56
:10163400013B0193019B002BF9D10446FFF72CFFDA
:10164400054623689B6813F0010F11D1FFF724FFAF
:10165400401B0228F5D9A36A43F01003A362E36A8E
:1016640043F00103E362002384F82430012002E004
:10167400002000E0002003B030BD00BF00000020C7
:1016840083DE1B4390F82430012B02D10223184639
:10169400704710B50446012380F82430FFF7B2FFE9
:1016A400034600285BD1A26A22F4407222F00102B0
:1016B40042F48072A26222682B498A4227D0A16A2E
:1016C40021F48011A162516811F4806F05D0A16AE0
:1016D40021F4405141F48051A162A16A11F4805F68
:1016E4002BD0E16A21F00601E162002184F8241084
:1016F4006FF0020111602268916801F46021B1F574
:10170400602F1DD0916841F4801191602AE0A1F509
:101714008061496811F4702FD1D0A16A41F480111D
:10172400A1621249496811F4806FD6D0A16A21F4EC
:10173400405141F48051A162CFE70021E162D4E736
:1017440009498A4204D0916841F4A001916009E0FA
:10175400A1F58061496811F4702FD3D1F3E7002219
:1017640084F82420184610BD0028014000240140BC
:1017740038B503689A6812F0010F01D1002038BD12
:1017840004469A6822F001029A60FFF785FE054636
:1017940023689B6813F0010F0ED0FFF77DFE401BFA
:1017A4000228F5D9A36A43F01003A362E36A43F065
:1017B4000103E362012038BD002038BD002800F099
:1017C4008A8070B50446836A002B4DD02046FFF70B
:1017D400CFFFA36A13F0100377D1002875D1A26A52
:1017E40022F4885222F0020242F00202A2626568E8
:1017F40021683A4A91423DD0E2692A43E66842EAC6
:101804004602A568B5F5807F3ED0012D39D06569C3
:10181400012D3CD04D6825F469452B434B6021686C
:101824008D682F4B2B4013438B60A368B3F5807FE7
:101834003ED0012B3CD000232568E96A21F47001D5
:101844000B43EB6223689968264B0B409A4233D0D2
:10185400A36A23F0120343F01003A362E36A43F084
:101864000103E362012070BDC36280F82430FFF7F6
:101874002BFEABE7E269B2F5402FBED14FF4002254
:10188400BBE74FF48073C2E74FF48073BFE736B908
:10189400A569013D43EA453343F40063BAE7A56A09
:1018A40045F02005A562E56A45F00105E562B1E76A
:1018B4002369013B1B05BFE70023E362A36A23F00E
:1018C400030343F00103A36270BDA36A43F0100352
:1018D400A362012070BD0120704700BF003C01409D
:1018E400FDF7E1FFFE0E1FFF0268D36823F0C0037B
:1018F400D360202380F8393070470268D36823F41A
:101904009073D3600268536923F001035361202369
:1019140080F83A30704790F83930DBB2212B01D08F
:10192400022070478368B3F5805F17D00268036AAA
:10193400591C01621B785360C38C9BB2013B9BB260
:10194400C384DBB90268D36823F08003D3600268E0
:10195400D36843F04003D36000207047036A0268F1
:101964001B88C3F30803536003691BB9036A02337A
:101974000362E1E7036A01330362DDE70020704795
:101984002DE9F04705460268136923F44053C16802
:101994000B4313618368026913434269134301686B
:1019A400CA6822F4B05222F00C021343CB600268DE
:1019B400536923F4407381690B435361D0F8008069
:1019C400594B984557D0FEF7F9FF00EB800000EB28
:1019D40080006C68A400B0FBF4F4544FA7FB0434FB
:1019E40064092601FEF7EAFF00EB800000EB8000AB
:1019F4006C68A400B0FBF4FAFEF7E0FF00EB800093
:101A040000EB80006C68A400B0FBF4F4A7FB043482
:101A140064094FF0640909FB14A424013234A7FBC0
:101A24000434640904F0F0043444FEF7C7FF00EB07
:101A3400800000EB80006E68B600B0FBF6F6FEF79F
:101A4400BDFF00EB800000EB80006B689B00B0FBE7
:101A5400F3F0A7FB0030400909FB10694FEA0919AC
:101A640009F13209A7FB0937C7F343172744C8F81C
:101A74000870BDE8F087FEF7B1FF00EB800000EBD3
:101A840080006C68A400B0FBF4F4284FA7FB043476
:101A940064092601FEF7A2FF00EB800000EB800042
:101AA4006C68A400B0FBF4FAFEF798FF00EB80002A
:101AB40000EB80006C68A400B0FBF4F4A7FB0434D2
:101AC40064094FF0640909FB14A424013234A7FB10
:101AD4000434640904F0F0043444FEF77FFF00EB9F
:101AE400800000EB80006E68B600B0FBF6F6FEF7EF
:101AF40075FF00EB800000EB80006B689B00B0FB7F
:101B0400F3F3A7FB03235B0909FB13694FEA0919E4
:101B140009F13209A7FB0937C7F343172744C8F86B
:101B24000870BDE8F08700BF003801401F85EB5105
:101B340058B310B5044690F839300BB3242384F815
:101B440039302268D36823F40053D3602046FFF76A
:101B540017FF2268136923F49043136122685369C1
:101B640023F02A0353612268D36843F40053D360FB
:101B74000020E063202384F8393084F83A3010BD23
:101B840080F8383000F016FDD8E7012070470000D7
:101B940038B590F83940E4B2202C01D0022038BD89
:101BA400002931D0002A31D090F83830012B01D1EE
:101BB400022038BD13460446012280F83820016211
:101BC4008384C3840025C563212280F83920026BF5
:101BD4000F489062226B0F48D062226B0E4810634C
:101BE400226B556322680432206B00F037FA2368B5
:101BF4006FF040021A6084F838502268536943F049
:101C040080035361284638BD012038BD012038BD0A
:101C1400CB1C0008171D00080D1E000830B583B04A
:101C240090F83A40E4B2202C02D0022003B030BD38
:101C340000293DD0002A3DD090F83830012B01D145
:101C44000220F3E713460A460446012180F83810BF
:101C5400826283850025C563222180F83A10416B96
:101C640015488862616B1548C862616B1448086343
:101C7400616B4D6321680431606B00F0EFF90195ED
:101C840023681A6801925A680192019A84F83850BC
:101C9400DA6842F48072DA602268536943F001031F
:101CA40053612268536943F0400353612846BDE7FA
:101CB4000120BBE70120B9E7231D0008011E00082D
:101CC4000D1E0008704708B5436A0268126812F0D6
:101CD400200F0CD10022DA8419684A6922F08002AC
:101CE4004A611A68D36843F04003D36008BD1846BC
:101CF400FFF7E8FF08BD08B50168CB6823F040038F
:101D0400CB60202380F83930FFF7DCFF002008BDCA
:101D1400704708B5406AFFF7FBFF08BD704708B578
:101D2400436A0268126812F0200F13D10022DA8588
:101D34001968CA6822F48072CA6019684A6922F074
:101D440001024A6119684A6922F040024A6120226C
:101D540083F83A201846FFF7E1FF08BD08B590F86C
:101D64003A30DBB2222B01D0022008BD8368B3F5E0
:101D7400805F0FD003690BBB836A5A1C82620268BE
:101D840052681A70C38D9BB2013B9BB2C385F3B1F9
:101D9400002008BD826A036943B903685B68C3F322
:101DA40008031380836A02338362EBE703685B688A
:101DB400DBB21380836A01338362E3E7826A531CD4
:101DC400836203685B6803F07F031370DAE70268D9
:101DD400D36823F02003D3600268D36823F48073AC
:101DE400D3600268536923F001035361202380F810
:101DF4003A30FFF793FF002008BD704708B5406AEA
:101E0400FFF7FBFF08BD704710B5446A23685A69A1
:101E140094F83930DBB2212B10D023685A6902F0D0
:101E2400400294F83A30DBB2222B11D0E36B43F03A
:101E34001003E3632046FFF7E6FF10BD02F08002C3
:101E4400002AEAD00023E3842046FFF74DFDE4E7AF
:101E5400002AEBD00023E3852046FFF74EFDE5E79B
:101E640010B5044602681368D168526913F00F0074
:101E740005D113F0200F02D011F0200F53D1002808
:101E840067D012F0010202D111F4907F61D013F0F7
:101E9400010F06D011F4807F03D0E06B40F0010005
:101EA400E06313F0040F04D01AB1E06B40F00200B9
:101EB400E06313F0020F04D01AB1E06B40F00400A9
:101EC400E06313F0080F04D01AB1E26B42F0080289
:101ED400E263E26B002A48D013F0200F02D011F025
:101EE400200F24D123685B6903F04003E26B12F0F6
:101EF400080F00D13BB32046FFF7FFFC23685A6963
:101F040012F0400F1BD05A6922F040025A61636BF1
:101F14008BB11A4A5A63606B00F0DAF828B3606B2D
:101F2400436B984710BD2046FFF718FF10BD2046AD
:101F3400FFF714FFD6E72046FFF765FF10BD2046E4
:101F4400FFF761FF10BD2046FFF75DFF0023E36349
:101F540010BD13F0800F02D011F0800F06D113F0E2
:101F6400400F02D011F0400F04D110BD2046FFF7FE
:101F7400D2FC10BD2046FFF7BEFEF6E7851F000821
:101F840008B5406A0023C385C384FFF73CFF08BD3E
:101F940070B4C56B066C0124B4406C600468636063
:101FA4004368102B05D0036899600368DA6070BC3D
:101FB400704703689A600368D960F8E700283FD047
:101FC40010B4034601681F4A91422ED81E4A0A449F
:101FD4001E49A1FB02121209920002641C4AC26348
:101FE400022283F821201868016821F47F5121F02E
:101FF40030015A689C682243DC6822431C692243EE
:102004005C6922439C692243DC6922430A430260DF
:1020140000209862D862186358639863012283F899
:10202400212083F8200010BC70470A4A0A4407495B
:10203400A1FB0212120992000264074AC263CFE7AD
:102044000120704707040240F8FFFDBFCDCCCCCC83
:1020540000000240F8FBFDBF0004024038B590F8D0
:102064002040012C32D0012480F8204090F82140F7
:10207400012C04D0002380F82030022038BD04460F
:10208400022084F821000020A0632568286820F03D
:10209400010028602046FFF77BFFE36A5BB12268FA
:1020A400136843F00E0313602268136843F00103BE
:1020B4001360002038BD2268136823F00403136002
:1020C4002268136843F00A031360EDE7022038BD69
:1020D40008B590F82130022B03D004238363012038
:1020E40008BD0268136823F00E03136002681368C6
:1020F40023F0010313600368484A934248D9783AAD
:10210400934221D0143293422DD0143293422CD0D6
:10211400143293422CD0143293422CD01432934272
:102124002CD002F5677293422BD0143293422AD0FA
:102134001432934229D01432934202D04FF48032A5
:1021440003E04FF4805200E00122354B5A60012332
:1021540080F82130002380F82030436B002B5BD0C3
:102164009847002008BD1022EFE74FF48072ECE797
:102174004FF48052E9E74FF48032E6E74FF48012DF
:10218400E3E70122E1E71022DFE74FF48072DCE7A6
:10219400244A934224D01432934225D014329342D9
:1021A40024D01432934224D01432934224D01432D3
:1021B400934224D01432934224D002F562729342A3
:1021C40023D01432934222D01432934221D01432B9
:1021D400934202D04FF4803203E04FF4805200E087
:1021E4000122114B5A60B2E71022FAE74FF48072D1
:1021F400F7E74FF48052F4E74FF48032F1E74FF4FD
:102204008012EEE74FF08072EBE70122E9E710223B
:10221400E7E74FF48072E4E7002008BD8000024045
:1022240000040240080002400000024038B5C36BBD
:102234001A6804682568016C04238B401A4200F074
:10224400978015F0040F00F09380236813F0200F9B
:1022540003D1236823F0040323600368A34A934251
:1022640042D9783A934221D01432934227D014327F
:10227400934226D01432934226D01432934226D06D
:102284001432934226D002F56772934225D0143259
:10229400934224D01432934223D01432934202D076
:1022A4004FF4802203E04FF4804200E00422904B7C
:1022B4005A60C36A002B00F01781984738BD40224A
:1022C400F5E74FF48062F2E74FF48042EFE74FF412
:1022D4008022ECE74FF48002E9E70422E7E740229A
:1022E400E5E74FF48062E2E7824A934224D0143255
:1022F400934225D01432934224D01432934224D0F2
:102304001432934224D01432934224D01432934290
:1023140024D002F56272934223D01432934222D025
:102324001432934221D01432934202D04FF48022CB
:1023340003E04FF4804200E004226F4B5A60B8E798
:102344004022FAE74FF48062F7E74FF48042F4E763
:102354004FF48022F1E74FF48002EEE74FF0806201
:10236400EBE70422E9E74022E7E74FF48062E4E781
:1023740002238B401A4200F09C8015F0020F00F0FB
:102384009880236813F0200F06D1236823F00A03F2
:102394002360012380F821300368544A934244D9CE
:1023A400783A934221D01432934229D01432934282
:1023B40028D01432934228D01432934228D01432B5
:1023C400934228D002F56772934227D01432934285
:1023D40026D01432934225D01432934202D04FF4C3
:1023E400003203E04FF4005200E00222404B5A60F6
:1023F400002380F82030836A002B75D0984738BDBD
:102404002022F3E74FF40072F0E74FF40052EDE7B7
:102414004FF40032EAE74FF40012E7E70222E5E75F
:102424002022E3E74FF40072E0E7324A934224D0DB
:102434001432934225D01432934224D0143293425E
:1024440024D01432934224D01432934224D0143230
:10245400934224D002F56272934223D01432934201
:1024640022D01432934221D01432934202D04FF43A
:10247400003203E04FF4005200E002221E4B5A6087
:10248400B6E72022FAE74FF40072F7E74FF4005260
:10249400F4E74FF40032F1E74FF40012EEE74FF0A7
:1024A4000072EBE70222E9E72022E7E74FF400722B
:1024B400E4E7082303FA01F10A4215D015F0080FE6
:1024C40012D0236823F00E032360C16B026C012336
:1024D40003FA02F24A60836380F82130002380F813
:1024E4002030036B03B1984738BD00BF8000024021
:1024F4000004024008000240000002400F4B1A682A
:1025040042F001021A6059680D4A0A405A601A687A
:1025140022F0847222F480321A601A6822F4802233
:102524001A605A6822F4FE025A604FF41F029A603D
:102534004FF00062034B9A60704700BF00100240E6
:102544000000FFF800ED00E000B583B0164B5A69B7
:1025540042F001025A615B6903F001030193019B9C
:10256400002211460C20FEF761FD0C20FEF790FDC1
:10257400002211460D20FEF759FD0D20FEF788FDBF
:102584000A480B4B03604FF41643436000238360F7
:10259400C36003610C2242618361C361FFF7C8FA1F
:1025A40003B05DF804FB00BF001002406802002085
:1025B40000480040F0B589B0044600230493059315
:1025C4000693079303685C4A934204D05B4A9342A0
:1025D40058D009B0F0BD5A4BDA6942F40032DA61DE
:1025E400DA6902F400320092009A9A6942F0040215
:1025F4009A619B6903F004030193019B04230493F0
:1026040002230593032307934E4E04A93046FEF795
:1026140077FD08230493002505950123069304A957
:102624003046FEF76DFD484E484B33607560B5602B
:102634008027F760356175612023B361F561304609
:10264400FFF7BCFC66637462414E424B3360102357
:102654007360B560F76035617561B561F5613046E9
:10266400FFF7ACFC266374622A4629462620FEF74F
:10267400DDFC2620FEF70CFD2268D36843F010032E
:10268400D360A6E72E4BDA6942F48022DA61DA6974
:1026940002F480220292029A9A6942F008029A6134
:1026A4009B6903F008030393039B4FF48063049333
:1026B4000223059303230793274E04A93046FEF70C
:1026C4001FFD4FF400630493002505950123069331
:1026D40004A93046FEF714FD204E214B336075608B
:1026E400B5608027F760356175612023B361F561BA
:1026F4003046FFF763FC666374621A4E1A4B33600C
:1027040010237360B560F76035617561B561F5617B
:102714003046FFF753FC266374622A462946272075
:10272400FEF784FC2720FEF7B3FC2268D36843F04D
:102734001003D3604DE700BF004400400048004050
:102744000010024000080140E00100206C0002403B
:102754006804002080000240000C01402402002094
:10276400300002406C0300201C0002402DE9F04FB1
:1027740089B07E4B9A6942F004029A619A6902F028
:1027840004020192019A9A6942F008029A619A69D4
:1027940002F008020292029A9A6942F010029A61C7
:1027A4009B6903F010030393039B4FF00009CDF8DA
:1027B4001490CDF81890022707974FF0200A0DEBDC
:1027C4000A0444F810AD21466948FEF799FC4023F9
:1027D400049321466648FEF793FC80250495214620
:1027E4006348FEF78DFC4FF48063049321466148EF
:1027F400FEF786FC4FF40063049321465D48FEF720
:102804007FFC4FF48056049621465A48FEF778FC24
:102814004FF00108CDF81880049621465648FEF77B
:102824006FFCCDF81890049721465348FEF768FCD6
:10283400CDF814804FF00409CDF8109021464C488F
:10284400FEF75EFC1026049621464B48FEF758FC22
:10285400CDF810A021464848FEF752FC0323059307
:10286400CDF8108021464348FEF74AFCCDF810808D
:1028740021464148FEF744FC4FF0080BCDF810B058
:1028840021463C48FEF73CFC049721463948FEF7B4
:1028940037FC049621463748FEF732FCCDF810A0E9
:1028A40021463448FEF72CFCCDF8109021463148DF
:1028B400FEF726FCCDF810B021462F48FEF720FC89
:1028C400CDF8109021462C48FEF71AFC05974023BA
:1028D400049321462748FEF713FC04952146254816
:1028E400FEF70EFC4FF48079CDF810902146214874
:1028F400FEF706FC049521461F48FEF701FCCDF8BF
:10290400108021461A48FEF7FBFB0497214618481D
:10291400FEF7F6FBCDF8109021461748FEF7F0FBC2
:102924004FF40073049321461348FEF7E9FB4FF478
:102934008063049321461048FEF7E2FB4FF40053F2
:10294400049321460A48FEF7DBFB4FF480430493CB
:1029540021460748FEF7D4FB4FF400430493214675
:102964000348FEF7CDFB09B0BDE8F08F001002402C
:10297400000C014000100140000801402DE9F04F17
:1029840099B0774B9A6942F400629A619A6902F4A9
:1029940000620192019A9A6942F400529A619B6919
:1029A40003F400530293029B6E4EDFF8C091C6F805
:1029B4000090002474604FF0200AC6F808A04FF479
:1029C400FA6BC6F80CB034617461B4613046FEF73A
:1029D40087F910231693179416A93046FEF7BEFA0A
:1029E40060230F931094119408271297139414944E
:1029F4004FF40073159322460FA93046FEF7C4F92D
:102A040004220FA93046FEF7BFF93A460FA9304613
:102A1400FEF7BAF94FF4006308934FF48063099307
:102A24000A9430230B930C940D940E940DEB0A012D
:102A34003046FEF767FA4C4DDFF83481C5F8008064
:102A44006C60C5F808A0C5F80CB02C616C61AC6171
:102A54002846FEF745F9CDF858A08023179316A908
:102A64002846FEF77BFA049418A9052341F8543D3F
:102A74002846FEF7C7F85023C8F8243060230F9384
:102A8400109411941297139414944FF400731593A3
:102A940022460FA92846FEF777F904220FA92846F3
:102AA400FEF772F93A460FA92846FEF76DF94FF47E
:102AB400006308934FF4806309930A9430230B93C3
:102AC4000C940D940E940DEB0A012846FEF71AFAA5
:102AD400D8F8443023F40043C8F84430D9F84430DB
:102AE40023F40043C9F8443021462846FEF7C8F9C8
:102AF40004212846FEF7C4F939462846FEF7C0F9F2
:102B040021462846FEF7ECF904212846FEF7E8F9A9
:102B140039462846FEF7E4F921463046FEF7B0F977
:102B240004213046FEF7ACF939463046FEF7A8F9E1
:102B340021463046FEF7D4F904213046FEF7D0F999
:102B440039463046FEF7CCF92B6801221A63326805
:102B5400136843F00103136019B0BDE8F08F00BFA0
:102B6400001002402C03002000050020002C01402E
:102B7400003401402DE9F04387B0434EB36943F478
:102B84000073B361B36903F400730093009B3F4C7B
:102B94003F4B23604FF48073A3600025E5606561BB
:102BA4004FF44023E36165604FF00508C4F81080DA
:102BB4002046FEF703FE374A536843F480235360EC
:102BC40006A94FF4C02341F8043D2046FEF7F0F96E
:102BD40004950B2702974FF00109CDF80C9002A938
:102BE4002046FEF773FCCDF8109002950223039360
:102BF40002A92046FEF76AFC0E23029303230393E3
:102C040002A92046FEF762FC0C23029304230393DB
:102C140002A92046FEF75AFC0723049310230293CB
:102C2400CDF80C8002A92046FEF750FC2268936878
:102C340043F4000343F480739360936843EA090305
:102C44009360736943EA09037361736903EA0903CF
:102C54000193019B104B1D60C3F804800F4A9A60D6
:102C64000F4ADA6040F6A2221A601A6842EA0902A0
:102C74001A602A4629463846FEF7D8F93846FEF740
:102C840007FA07B0BDE8F0830010024038040020C2
:102C94000024014000000140080002404C2401408F
:102CA400AC040020F0B585B0284B9A6942F48062E8
:102CB4009A619B6903F480630093009B244C254B29
:102CC40023604FF48073A3600025E56065614FF4D1
:102CD4006023E3616560052626612046FEF76EFDEC
:102CE40003950A2301930125029501A92046FEF7C5
:102CF400EDFB03950D2301930227029701A92046BA
:102D0400FEF7E4FB0F2301930325029501A9204656
:102D1400FEF7DCFB0197042302930DEB030120462D
:102D2400FEF7D4FB072303930195029601A92046DD
:102D3400FEF7CCFB23689A6842F480729A609A6822
:102D440042F001029A6005B0F0BD00BF00100240DD
:102D5400A80200200028014070B5204C012384F80B
:102D6400F930022284F8F62084F8F73042F6E06362
:102D7400A4F8CC304FF47A53A4F8D830002684F861
:102D8400F8604FF47A62A4F8CE204FF4C872A4F825
:102D9400CA2045F6C052A4F8DE20A4F8E030104D55
:102DA400FC2221462846FDF795FA85F8F9600D487E
:102DB40004600D4BC3600D4B43600D4B83600D4CA1
:102DC40025600D4BE3600D4B63600D4BA36001F078
:102DD40051FF204601F04EFF70BD00BF18000020D7
:102DE40044050020DC07002050060020B80700201E
:102DF400F4060020C8070020140700200407002060
:102E0400400600200C4B93F8F83063B90B4B93F851
:102E1400F83043B94FF47A72094B1A804FF61842CE
:102E2400084B1A80704740F2DC52054B1A804FF66B
:102E34002422044B1A807047180000204405002007
:102E440034010020360100200268D36823F4807323
:102E5400D3600268536923F0010353617047000093
:102E640010B5FFF771FB054C402205492046FEF7DB
:102E7400D5FE2046FFF7E8FF10BD00BF6802002022
:102E84004C01002010B5082405E0064B1C7064209A
:102E9400FEF708FB013C002CF7DA0022014B1A7004
:102EA40010BD00BFBB01002010B5044C207064208D
:102EB400FEF7F8FA0023237010BD00BFBB01002009
:102EC400094BB3F90830094AB2F908209B1A03EBFD
:102ED400D37343F34F03064A1380002BB8BF5B42FE
:102EE400044A1380704700BFF40600204006002007
:102EF40040050020DA07002010B500240A4B1C709E
:102F04000A4B1C700A4800F0CDFD05E0094B1C700B
:102F14006420FEF7C7FA0134072CF7DD00222021D4
:102F24000548FEF7F2F9FEE7BC010020D0010020BD
:102F34009C4D0008BB0100200008014008B5022197
:102F44000748FEF7DBF900B908BD0022054B1A70EB
:102F540002210348FEF7D2F90028F9D1FFF7CCFF8C
:102F640000080140D00100201F4BB3F902301F4A72
:102F7400B2F9002093420FDB1D49B1F900108B42D6
:102F84000ADC1948B0F90400824205DC814203DB03
:102F9400184A1380184B18800022184B1A60184ADC
:102FA4001388591C11809F2B05D90122154B1A70C7
:102FB400A022134B1A80134B1B78134A1370134A25
:102FC40012784AB943B90D4B1B68142B04D8104B23
:102FD4001A78104B1A70704700230E4A1370054A72
:102FE4001380054A13807047380100203601002001
:102FF40034010020D8070020C6070020300100203B
:103004008C010020900100208F0100208E010020FF
:10301400050000200400002010B403884AF6CD34D3
:10302400A34201D010BC70471BB2B0F90240634008
:10303400B0F9044063409BB2C488A342F2D104684F
:1030440043680C604B60022AECD0032AEAD10023C7
:10305400024A1380024A1370E4E700BF8C01002087
:103064009001002038B51E4B5B6B1B685C68C4F193
:1030740040041C4B1B689C4208D002D9E21A082A5F
:1030840009D0C3F140056219082A11D0154B1C6000
:10309400402C21D038BD14490B44144D2A461868DD
:1030A400596803C2032212492846FFF7B5FFEDE72A
:1030B4002A460D4919440D48FDF70CF92CB9032291
:1030C4000B490A48FFF7A8FFE0E7224606490748EC
:1030D4002844FDF7FFF8F2E700221A60DAE700BFA0
:1030E40068020020480100204C010020400100201B
:1030F400380100202DE9700316683313C3EB001068
:103104004FEAE0798CB2A4FB000104FB0911040925
:1031140044EA01740D11B4F1004F75F1000308DAAB
:103124002346B4F1004F75F1FF3104DA4FF0004348
:1031340001E06FF000431E441660BDE87003704761
:10314400000180B21388C01A00B2884203DC4942ED
:1031540009B2884202DA1944118070470146FAE73D
:1031640070B44910441AB4F5004F24DA164DAC4239
:10317400B8BF2C462411154DB5F90050AC421DDCE6
:10318400134EB6F90060B442B8BF34461480084404
:10319400B0F5004F14DA0C498842B8BF0846001154
:1031A400854205DB0A4AB2F900508542B8BF05469C
:1031B4001D8070BC704747F6FF74DBE72C46E5E7DB
:1031C40047F6FF70EBE700BF0080FFFF34010020EB
:1031D4003601002030B597B002250C9501231093D9
:1031E400102311931395002414944FF46013159332
:1031F4000CA8FDF7FBF80F230793089509944FF4E7
:1032040080630A930B94294607A8FDF715FB0195E3
:103214004FF48043039301A8FEF782F8FDF7C8FB3F
:10322400084BA3FB00308009FDF73EFF0420FDF7A7
:1032340051FF224621464FF0FF30FDF7F7FE17B04D
:1032440030BD00BFD34D62102DE9F04184B0FEF7CC
:1032540009F9C24CA36943F00103A361A36903F014
:1032640001030193019B0320FDF7CEFE00221146CA
:103274006FF00B00FDF7DAFE002211466FF00A0032
:10328400FDF7D4FE002211466FF00900FDF7CEFED3
:10329400002211466FF00400FDF7C8FE002211461B
:1032A4006FF00300FDF7C2FE002211466FF001002B
:1032B400FDF7BCFE002211464FF0FF30FDF7B6FECD
:1032C400FFF788FF636923F001036361FFF74EFA98
:1032D400FFF754FBFFF74EFCFFF7E4FCFFF73CFD60
:1032E400FFF790FDFFF7BCFD012220219C48FEF76B
:1032F4000CF89C48FEF7C6F99B48FEF7C3F9FFF7A4
:10330400C1FD012204219948FDF7FFFF0024ADF817
:103314000E40ADF80C40964A138A1B040293138A9C
:103324002546D3E0934E32464FF4F071924BB3F9F5
:103334000000FFF705FFDFF89C8242464FF4F0716E
:103344008E4BB3F90000FFF7FBFE8D4FB6F900007A
:103354003A4641F699110011FFF7CCFE894EB8F9AF
:103364000000324641F699110011FFF7C3FEB7F988
:103374000210B6F90200000109010DF10E0303AABF
:1033840009B200B2FFF7ECFEBDF90E30A4F16402FD
:10339400934210DD6434A3420DDABDF90C20A5F18B
:1033A40064018A4207DD6435AA4204DA524276494E
:1033B4000A60764A13606E4B188A02AA40F28F2183
:1033C40080B2FFF797FEBDF90A30A3F2776303EBEF
:1033D400831203EB42036E4A82FB0312DB17A3EB57
:1033E400620303F5B3731BB26A4A126812F0010F49
:1033F40029D169484AF6CD3202805F4AB2F9007099
:1034040047805E4AB2F900608680644AB2F9085087
:10341400C580634AB2F908400481624AB2F90010D7
:1034240040F6827202FB01F25F4981FB02E1D2178E
:10343400C2EB612212B2428183815C49096B096843
:103444004968002976D0FFF779FD564BB3F900306F
:1034540040F2F142934204DC554AB2F90020132AA7
:1034640078DD4F4A927922B94C4A9279002A00F0C9
:10347400B38000224F4B1A7008224F4B1A7001225E
:103484004E4B1A70BDF90E30002BB8BF5B42322B85
:1034940007DCBDF90C30002BB8BF5B42322B40F384
:1034A400BF800022464B1A60454B1A68454B9A422E
:1034B40000F2BB80BDF90E40BDF90C50354A1368CB
:1034C40001331360404A1368013313600520FDF78C
:1034D400E9FFFFF749FDFFF7F3FC364B1B78002BA0
:1034E4007FF420AF2E4B9B79002B7FF41BAF2B4B2B
:1034F4009B79002B7FF416AF1F4B1B8831339BB293
:10350400622B3FF60FAF1D4B1B8831339BB2622BEE
:103514003FF608AF0620FFF7C7FC0420FFF7C4FC02
:103524006420FDF7BFFF0122224B1A70274800F0E8
:10353400B9FAF7E601460020C8812548784046409C
:1035440075406C40624053400B8212221748FEF7CC
:103554001FFB78E7FFF7D0FC94E700BF00100240A0
:103564000008014038040020A8020020000C01409B
:10357400AC040020B8010020D8070020C6070020B2
:10358400B4010020AC010020D8010020D4010020A7
:103594006B4CA407EC070020940100204006002097
:1035A400F406002006000020D190D95768020020BC
:1035B400DA070020D0010020BB010020BC0100205C
:1035C400A80100208038010030010020BC4D000813
:1035D400CDABFFFFB0010020154A127832B9154A6D
:1035E40012781AB9144A1268142A06D91822134BED
:1035F4001A700122124B1A7044E740F2225293428D
:1036040006DC05220D4B1A7006220D4B1A7039E7A1
:1036140000230A4A13700A4A13700A4A137031E7E6
:10362400094A1368013313603EE7FFF765FC41E77D
:103634008E0100208F01002030010020BB010020FA
:10364400BC010020F0070020A801002002229E4BAC
:103654005A609E4B1B88B3F5FA6F7BD310B59C4B15
:103664001A689C4BA3FB02139B094FF47A7101FB6C
:103674001323002B00F0AF80974B9A8891B2974A9E
:103684001288521A96490A80DA8891B2954A1288A9
:10369400521A95490A805A8891B2944A1288521A49
:1036A40012B293490A80198988B292490988091A81
:1036B40091480180598988B290490988091A90482B
:1036C40001801B8899B28F4B1B885B1A1BB28E49F1
:1036D4000B80002AB8BF524240F252318A4204DCC5
:1036E4008A4A1278002A40F0848089494A6C22F47C
:1036F40000424A64002BB8BF5B4240F2523293420C
:1037040003DC824B1B78002B79D1824A536C23F45F
:10371400004353646E4A1368013313607E4A14787D
:10372400002C72D07D4AA2FB0312120B7C4909784B
:103734000131B2FBF1F001FB1022002A65D1B3FB89
:10374400F4F204FB1233002B64D110217548FDF709
:10375400E2FD5FE001335D4A13805F4A938899B2CA
:103764005E48B0F900300B4403EBD3735B10038065
:10377400D38899B25B48B0F900300B4403EBD373A0
:103784005B100380138999B25A48B0F900300B4496
:1037940003EBD3735B100380538999B25748B0F994
:1037A40000300B4403EBD3735B100380538899B24E
:1037B4004E48B0F900300B4403EBD3735B10038025
:1037C40013889AB24F49B1F90030134403EBD37311
:1037D4005B100B807047404B9889534C224640F253
:1037E4008F2180B2FFF786FCB4F902204F4B1A8078
:1037F40042E747494A6C42F400424A647AE7454A40
:10380400536C43F40043536484E700221021454879
:10381400FDF77BFD464B1B78002B40F026810122EF
:10382400434B1A70394B1B784BB1424B9B79002B9D
:1038340045D1414B9B79002B43D0002200E000226C
:10384400D2B23E4B1A703E4B996811F0200F0CBF58
:1038540001240024996811F0400F0CBF01200020BE
:103864009B6813F0800F0CBF01210021354B1A70A7
:10387400354A12785A70354A12685A801C71587148
:103884009971174A12881A81174A12885A81184A5C
:1038940012889A812E4B186800F09EFA254BB3F9D2
:1038A4000010B3F90220B3F9043001F57A7040F244
:1038B4006274A0424EDC6D285ADD81B24CE00022D5
:1038C400BEE70122BCE700BF00000240D201002095
:1038D400C0010020D34D6210AC0400201000002071
:1038E400C601002012000020C80100200C000020A6
:1038F400C401002014000020CC0100201600002088
:10390400CE0100200E000020CA010020D0010020BA
:1039140000340140002C0140BB0100205917B7D1ED
:10392400BC0100200008014008000020060000201F
:10393400BA010020F406002040060020D101002036
:10394400000C0140B807002004000020D40100202E
:10395400B44D000840F262714548416302F57A7142
:1039640040F26270814205DC6D2911DD8AB203E008
:103974006E21F1E740F262723D498A6303F57A727F
:1039840040F262718A4205DC6D2A45DD93B203E0A0
:103994006E22F1E740F26273354AD363354B9A687D
:1039A40012F4806F0CBF012000209A6812F4006F9B
:1039B4000CBF012100219B6813F4805F0CBF01221E
:1039C40000222D4B2D4C24781C702D4C24785C70D7
:1039D4002C4C24685C80187159719A712A4A128897
:1039E4001A812A4A12885A81294A12889A81294BB3
:1039F400186800F0F1F9284BB3F90010B3F902206C
:103A0400B3F9043001F57A7040F26274A04205DC27
:103A14006D2811DD81B203E06E23BDE740F26271CF
:103A24001E48416302F57A7140F26270814205DCFE
:103A34006D2911DD8AB203E06E21F1E740F2627272
:103A440016498A6303F57A7240F262718A4205DC90
:103A54006D2A0BDD93B203E06E22F1E740F262734C
:103A64000E4AD36300220E4B1A7010BD6E23F7E783
:103A7400003401400010014004070020D10100205F
:103A840004000020D8010020CC010020CE01002039
:103A9400CA010020B84D000840060020002C014057
:103AA400BA01002070477047FEE7FEE7FEE7FEE735
:103AB40070477047704708B5FDF7E6FCFDF71BFB40
:103AC40008BD000008B50248FEF7B0FB08BD00BF02
:103AD4006C03002008B50248FEF7A8FB08BD00BF30
:103AE4002402002010B582B00A4C2046FEF7B8F933
:103AF4002368DA6812F0100F01D102B010BD002261
:103B040001921A6801925B680193019BFFF7AAFA7C
:103B1400F3E700BF68020020884209DD401A80B242
:103B2400B0FBF2F29A4201D3D8B27047D0B27047D8
:103B340000207047884209D9401A80B2B0FBF2F2E3
:103B44009A4201D3D8B27047D0B270470020704770
:103B5400CB0FB3EBD07F08D090FBF1F301FB130341
:103B64002BB990FBF1F0184470470023F9E74FF0AC
:103B7400FF33F6E7018070473AB9B3F900201044E7
:103B840000B2884203DB198070470022F7E71880EF
:103B940070470000F0B5BDF91460069F079C089DAE
:103BA40002FB00F2002A19DB002A05DD6FF0004E4B
:103BB400AEEB020E774518DC3A442F79C7B14FF0CB
:103BC400000E2F68774400FB01F1C912B1F5004FD4
:103BD40010DA11F5004F0FDA24490DE0C2F1004E5E
:103BE400BE45E1DD4FF00042E7E76FF00042E4E755
:103BF4009646E6E747F6FF71381401EB4001491099
:103C0400B1F5004F04DA11F5004F03DA174901E06A
:103C140047F6FF7109B2994212DD2380002A15DBB1
:103C2400002AD4BF00220122002912DB0029D4BFBC
:103C34000020012082420FD000232B712F60F0BDA1
:103C4400B14201DA2680E9E72180E7E74FF0FF324D
:103C5400EAE74FF0FF30EDE7994203DCB14203DBC2
:103C64000023EAE70123E8E70123E6E70080FFFFFA
:103C7400002303604360704730B4B0F900401D680E
:103C8400A4EB2544B4F5004F04DA14F5004F03DA2D
:103C94000F4C01E047F6FF7401FB04542514158012
:103CA4001C60B0F902405D68A4EB2540B0F5004FFC
:103CB40004DA10F5004F03DA054801E047F6FF7017
:103CC40001FB005001145180586030BC704700BFA4
:103CD4000080FFFF41607047F0B4BDF91070059D8E
:103CE400069C01FB00F1091113D4002905DD2668A7
:103CF4006FF00040401A864213DC2068014460687B
:103D04000144081306B29E420EDCBE4216DB2E802E
:103D14000BE02668C1F100408642E6DA4FF000412C
:103D2400EDE76FF00041EAE72B802B881B1A1BB2EA
:103D340003FB02F222606160F0BC70472F80F4E75D
:103D44000180704732B91A88104480B2884203D384
:103D5400198070470022F7E7188070470B780870C5
:103D6400181A18BF0120704710B50446002104300A
:103D7400FFF7E6FF0021A01CFFF7E2FF10BD2DE9CD
:103D8400F8430646884691461D46089CA779214675
:103D9400FFF7E4FF06B137B106B987B92F702B7866
:103DA400A371BDE8F883231D024641460120FFF7B5
:103DB400C9FF80452CBF002001202870EFE7A31C19
:103DC400024649460120FFF7BDFF814534BF00206C
:103DD40001202870E3E700002DE9F04F95B0056855
:103DE400C4684768D0F808803B799E00F6B27A79B7
:103DF4005100C9B20E44F6B2B9790E44F6B200329B
:103E040018BF012294F893E094F89400002B0CBF9F
:103E1400134682F00103002918BF83F00103BEF1A9
:103E2400000F18BF83F00103002818BF83F00103BB
:103E340094F89510003118BF012181EA03029942D8
:103E440055D094F98C109B4B334493F98807C3B233
:103E540094F88DE0A3EB0E035BB2012B6DD013F14C
:103E6400050F6AD0FF2384F88C3084F88D00B4F9F0
:103E74007C00A4F85A001FFA80FEB4F87E30AEEB42
:103E840003039BB20FFA83FCBCF1000F59DBB5F9B5
:103E940004309C4559DB012384F8A13094F8A190A7
:103EA40084F89A9094F98C30994214BF4FF0010C25
:103EB4004FF0000C04D094F89FA0BAF1000F6CD11D
:103EC40099424AD0B4F986109BB201FB03F3A4F8DB
:103ED4007A30A4F87E00B4F98230A4F88030B4F9C2
:103EE4008430A4F88230A4F8840084F89FC004F1DC
:103EF4004403B5F908100120FFF73EFE0990B5F917
:103F0400083098424BDCB4F97A300593059B002BBA
:103F140048DB059B0693B5F9D230069A9A4245DBF5
:103F2400012384F8A03094F8A030002B47D094F8F3
:103F34009A30002B7AD0002342E0012384F88C309D
:103F440093E75B420FFA83FCA1E7B5F906309C4581
:103F5400A4DC002384F8A130A0E7B9F1000F05D058
:103F64006989090191FBF0F109B2ADE7698989001A
:103F740089B20901B4F88090B4F882A0D1441FFA40
:103F840089F9B4F884A0D1441FFA89F9CE440FFA10
:103F94008EFE91FBFEF109B296E7002194E700231F
:103FA4000593B3E75B421BB20693B4E7B5F9D0308F
:103FB400069A9A42B7DC002384F8A030B3E70023C2
:103FC40003F0FF020792002B37D0B4F95A10099B73
:103FD4008B4200DB0B4694F98C20012A28D035480B
:103FE400304490F88807013040B29B0393FBF1F30F
:103FF40099B293B203FB01F31BB203EB803343F397
:104004008F03002B2BDDC3EB03131B110D931BB28A
:104014000893B7F902A0BAF5006F22DA1AF5006F17
:1040240041DD4FEA0A1A0FFA8AFA1CE00123C7E7B6
:104034002048304490F98807D7E794F98C30012B55
:1040440008D01C4B334493F8883701335BB21B030D
:104054001BB2D6E7174B334493F98837F7E70023AD
:10406400D1E747F6FF7A94F89B301A460B93B5F9DB
:10407400DAB095F8F730002B43D0002A41D098F8F5
:10408400063013F0040F60D1B4F98830002B0DDB37
:104094003A789AB1069A5A4553DAB5F9DC20934234
:1040A40051DC00230BE0DFF810A0DCE79BB25B429D
:1040B4001BB2EDE7D44D00080080FFFF0023DBB204
:1040C400072E44D04FF00009002E08BF09F1010962
:1040D4009B00DBB29944AA89E98919F0FF0904F12C
:1040E4000203009304F1990314BF01200020FFF799
:1040F40046FE214694F89900FFF730FE08B188F88F
:10410400069094F98E2094F89B301BBB4FF0FF333C
:1041140084F88E30934203D012B9FF2284F89020A1
:10412400002B40F0C4803B78B3B194F899307BBB4A
:104134007B787BB394F8922093422DD072BB0023FA
:104144000BE00023BBE70123B9E70123B8E74FF0F5
:104154000209B9E70023DBE70123DBB294F89620D8
:10416400F2B9012384F89630022384F897300023AF
:1041740084F8923095F8F630022B5BD0BAF57A5F6A
:1041840000F386801AF57A5F80F2A280974A81E074
:104194000123E2E70123E0E70023DEE70123DCE774
:1041A40094F89720012A1BD0002284F89220002B37
:1041B400E0D17B78013BDBB2022BDBD8069B5B456D
:1041C400D8DA012384F897307B78032B24D0022B90
:1041D40029D0032384F89830012384F89230C9E766
:1041E40043B1002384F89830022284F8972084F89D
:1041F4009230BFE794F89830012B05D0022B07D0FA
:10420400012384F89230B5E7022384F89230B1E7B1
:10421400032384F89230ADE7022384F89830032313
:1042240084F89230A6E7012384F89830022384F8B6
:1042340092309FE70023ADF84430B5F91030ADF863
:104244004630B5F9D830ADF84830B5F9CC30ADF8D2
:104254004A30BAF57A5F04DC1AF57A5F16DA634AF3
:1042640001E04FF47A527B7814A901EB430333F94C
:104274000C3C5B015E4981FB0301DB17C3EBE103EB
:104284009BB202FB03F343F30F3203E05246EAE727
:104294004FF47A5294F9900094F89230003318BF96
:1042A400012359B284F89010A3B1002B56D194F88D
:1042B4009C300A93B7F908904FEA091946F63F2350
:1042C40099454EDC4B4B994559DB0FFA89F94AE085
:1042D4005246DFE7884204D0012384F89E3000234D
:1042E400E364B4F98820120312F0006F26D042F080
:1042F400784294F89E00002384F89E3008BBE36C57
:10430400594211F0006F1ED041F0784E29688E4555
:1043140008DC494211F0006F18D041F078418E4515
:1043240000DB71460B4413F0006F12D043F0784366
:1043340090B1E2641B13A4F85C30B8E722F0784231
:10434400D7E71346DCE721F0784EDFE721F0784128
:10435400E5E723F07843EBE7E364EBE7A4F85C20BC
:10436400A5E746F64029B7F90A301B0146F63F2275
:10437400934207DC1F4A93421EDB1BB204E0DFF8C2
:104384007890F0E746F6402395F8F820002A5DD0AF
:104394000A9A002A5AD095F8F620002A56D0BAF183
:1043A400000F0BDBB5F9DEE0F2450CDCB5F9E0B04B
:1043B400DA4509DBD34607E00F4BE5E7CAF1000A0B
:1043C4000FFA8AFAEEE7F346022A0CD0B5F9CAA02E
:1043D400B5F9D4000699814210DCB5F9D620914292
:1043E4000DDB0A460BE0B5F9CEA0F1E780C1FFFF73
:1043F400D34D6210C195FFFFC095FFFF0246B5F88B
:10440400E0C0ABEB0C0109B2C9031FFA8EFEAEEBA0
:104414000C0E0FFA8EFE91FBFEF189B2B5F8D6E0D0
:10442400A2EB0E0212B2D20380B2A0EB0E0E0FFA70
:104434008EFE92FBFEF292B202FB01F2C2F3CF3285
:1044440002FB0AFA4AF3CF3AA4F85EA094F98F204B
:1044540095F8F610022946D04FF0FF3B84F88FB050
:1044640093450ED06AB9FF2184F891100021A4F875
:104474005010A4F85210A4F85410A4F85610A4F83C
:104484005810BBF1000F40F02E8312B10022A4F8A3
:104494008A20B4F95C200E92002A27DBB4F85E204F
:1044A400524212B20F9295F8F920002A6CD044F6C9
:1044B400E71202FB09F102FB03F300291CDB4FF0B6
:1044C400000A8A444FEAEA3A002B18DB002213441C
:1044D40043F38F335344B3F5004F13DA13F5004F0E
:1044E40012DAC64B10E04FF0000BB7E7BDF83820E6
:1044F400524212B20E92D1E747F6FF7AE1E743F651
:10450400FF72E4E747F6FF730FFA83FAB4238022BD
:1045140000210898FFF700FB0C9094F991303A7849
:104524000AB94FF0FF3B84F891B09B4505D023B9FD
:104534000022A4F85620A4F85820BBF1000F77D12C
:10454400002B4ED15046DFF8B8C20C9A02F53573F1
:104554003CF9131001FB0AFA4AF38F3A4B4602F571
:10456400077E0CEB4E02B2F9062002FB09F949F36F
:104574008F39AAEB0909B9F5004F37DA19F5004F5D
:1045840036DADFF8789233E049461A46A9EB03039A
:10459400B3F5004F04DA13F5004F03DA974B01E04B
:1045A40047F6FF7344F6E71A0AFB03F3002B10DB0C
:1045B4004FF0000A534443F3CF3AC1F10009A9EB89
:1045C4000202B2F5004F07DA12F5004F06DA8B4A01
:1045D40004E047F6FF7AEDE747F6FF720FFA82F937
:1045E40094E704F12400FFF743FBABE747F6FF79B8
:1045F400ADF84C9003FB01F343F38F3302FB00F25D
:1046040042F38F321344B3F5004F04DA13F5004F2D
:1046140003DA7A4B01E047F6FF73ADF84E3004F14C
:10462400240304F15602B5F8EA1013A8FFF724FB9B
:1046340094F89C30002B58D0B5F91030A4F86030B1
:104644009BB25B42A4F86230B4F98A0000286ADBAA
:10465400B5F96E10B5F870208BB2D21A2D2392B230
:10466400FFF75AFA083005EB4000B0F902A0A4F8AD
:1046740064A01FFA8AF35B42A4F86630B5F9CC90C3
:10468400A4F86890B4F95E000004B0F1004F4ED075
:1046940090FBF9F0002850DBB0F5803F4FDA31236E
:1046A40040F21F52002180B2FFF744FA00F5627015
:1046B400534B03EB4000438809FB03F94FEA2949B4
:1046C400A4F86A901FFA89F043421BB2A4F86C3034
:1046D40094F89220022A67D0032A79D0012A31D093
:1046E400B4F868305B42A4F86E3094F89D30002B27
:1046F40000F00081079B002B00F09F80B4F9680054
:104704000F9A824204DCB4F96E00824200DB104648
:10471400B4F95830C01AB0F5004F73DA10F5004FF1
:1047240072DA364870E080B2404200B290E7B9F1E4
:10473400FF3FADD16FF00040ACE70020AFE74FF68C
:10474400FF70ACE7B4F95630002B29DBC01AB5F87A
:10475400E220B5F8F01004F11C03029304F1740391
:1047640001934FF00009CDF80090DDF838A05346CE
:1047740000B2FFF7B1FAB5F8D800069A801AB5F876
:10478400E220B5F8F41004F11403029304F1720367
:104794000193CDF80090534600B2FFF79DFA9FE7CE
:1047A4009BB25B421BB2D1E7B4F95620914502DBC0
:1047B40093420BDD994692B2A9EB02090FFA89F9EB
:1047C400B5F8F03003FB09F3A36489E79146F2E7F7
:1047D400B5F8D800069BC01AB5F8E220B5F8F41075
:1047E40004F10C03029304F170030193002300937A
:1047F400534600B2FFF770FA72E700BF0080FFFF74
:10480400D44D000847F6FF70B4F96030B5F8EC20D9
:10481400B5F8E41004F13C0ECDF80CE004F1780E88
:10482400CDF808E04FF0000ECDF804E0B4F962E0F2
:10483400CDF800E000B2FFF7ADF994F89230022B06
:1048440032D0032B79D0012B04D0B4F95C30A4F816
:1048540076304FE0B4F974200E99914200DA0A469A
:10486400B4F972309A4200DA1346B4F95C20002A93
:104874000DDB002AD4BF0022012203FB02F31BB28A
:10488400B4F96420934205DDA4F8762032E04FF0B9
:10489400FF32F2E7B4F96620934202DAA4F87620F4
:1048A40028E0A4F8763025E0B4F95C00059BC01A32
:1048B400B0F5004F04DA10F5004F03DABD4801E00B
:1048C40047F6FF70B4F964C0B5F8F220B5F8E81003
:1048D40004F1340ECDF80CE004F1760ECDF808E0C6
:1048E400A36C0193B4F966E0CDF800E0634600B22E
:1048F400FFF750F9B4F97800DFF8BCE20C9B03F53C
:1049040035733EF913C00CFB00F242F38F32B4F955
:1049140076100C9B03F507730EEB4303B3F906E023
:104924000EFB01F343F38F33D21AB2F5004F41DA91
:1049340012F5004F40DA9F4A3EE0B4F970309AB263
:10494400524212B2B4F95C10B4F96A00814204DC38
:10495400B4F96C00814200DB0846B4F95610401AE1
:10496400B0F5004F04DA10F5004F03DA914801E086
:1049740047F6FF70B4F964108B4200DD0B46B4F9BE
:1049840066E0724500DD9646B5F8EE20B5F8E6100F
:1049940004F12C0CCDF80CC004F1760CCDF808C051
:1049A4004FF0000CCDF804C0CDF800E000B2FFF7E2
:1049B400F1F89FE747F6FF720EFB00FE4EF38F3EC1
:1049C40001FB0CF141F38F317144B1F5004F04DA6E
:1049D40011F5004F03DA774901E047F6FF7143F21E
:1049E4006D7E0EFB01F1002912DB002303EB010EA7
:1049F40011B293B203EBD17343F34E03C3EBAE3363
:104A0400B3F5004F07DA13F5004F06DA694B04E0FB
:104A140043F6FF73EAE747F6FF734A421BB29E462A
:104A2400D21AB2F5004F04DA12F5004F03DA614AE4
:104A340001E047F6FF72994213DA8C4612B29445AC
:104A440000DB9446994200DD0B46934200DC13469A
:104A54006344B3F5004F06DA13F5004F05DA554BFE
:104A640003E09C46EAE747F6FF7343F34F03C91A92
:104A7400B1F5004F04DA11F5004F03DA4D4901E0B6
:104A840047F6FF7144F6E71C0CFB01F141F38F314B
:104A9400A4F85010AEEB0301B1F5004F04DA11F5A0
:104AA400004F03DA434901E047F6FF7144F6E71E7D
:104AB4000EFB01FE4EF38F3EA4F852E0D21AB2F57B
:104AC400004F04DA12F5004F03DA3A4A01E047F6E0
:104AD400FF7244F6E71C0CFB02F242F38F32A4F897
:104AE4005420A4F88A0095F8F630022B13D0B4F9B8
:104AF4005C90079A0AB1022B10D0079A0AB1012BD5
:104B040013D02D4B1E4496F98807052856DC00283F
:104B140055DA002053E0B4F97690EAE7B4F950107E
:104B2400B4F95220B4F9543065E095F8F830002B0C
:104B34003DD0B4F85E3094F98C50ADB205FB03F56A
:104B44002DB2AD00ADB20D9B1D44ADB24FF4B441D6
:104B540028B2FEF7FDFF80B200EB4000C0EB00106E
:104B6400430298B2281A00B2B42380220021FEF72F
:104B7400D3FFB4F95C30104D35F9101001FB03F18B
:104B840041F38F3100F1B40205EB4202B2F9022085
:104B940002FB03F242F38F3200F5B47005EB4000E0
:104BA400B0F9040000FB03F343F38F3323E00898C8
:104BB400DAE700BF0080FFFFD44D0008052000EBBA
:104BC40040002B4B1A1892F9761789B21FFA89F50F
:104BD40005FB01F109B2421C1A4492F9762792B2FC
:104BE40002FB05F212B20230184490F976379BB2F8
:104BF40003FB05F31BB20911A8F800101211A8F861
:104C040002203A7984F893207A7984F89420BA7946
:104C140084F89520BDF82420A4F87C20BDF8182041
:104C2400A4F8862094F89D2084F89B20A4F888900A
:104C34009DF82C2084F89C209DF8282084F89D2041
:104C44001B11A8F80430059B1B11A8F80830089B19
:104C54009B11A8F80A30B4F956301B11A8F80C308F
:104C6400B4F958301B11A8F80E3015B0BDE8F08F18
:104C7400D44D000838B50268C468FF2384F88E3028
:104C840084F8903084F88F3084F89130B2F9083089
:104C9400A4F87C30012584F89B50B2F90830A4F8BC
:104CA4005A30B2F9081004F14400FEF763FFA01C67
:104CB400FFF75AF884F89E50002104F11C00FFF716
:104CC40009F8002104F11400FFF704F8002104F1AD
:104CD4000C00FEF7FFFF4FF46152A4F860204CF281
:104CE400C073A4F86230A4F86420A4F8663042F6D5
:104CF400E062A4F868204DF22013A4F86E30A4F802
:104D04006A20A4F86C3038BD002103E00B4B5B58DB
:104D1400435004310A480B4B42189A42F6D30A4ACC
:104D240002E0002342F8043B084B9A42F9D3FDF712
:104D3400E5FBFBF7A7FAFEF787FA70476C55000806
:104D4400000000201401002014010020F4070020BA
:104D5400FEE70000F8B500BFF8BC08BC9E467047EB
:0C4D6400F8B500BFF8BC08BC9E467047C4
:104D700002030405060708090A0B0C0D0E0F10109C
:104D80000102000000000000000000000102030416
:104D90000607080900000000010203042D2D204D24
:104DA0006F746F72732064697361626C6564202D27
:104DB0002D0D0A00DC070020C80700202D2D204DF6
:104DC0006F746F727320656E61626C6564202D2D47
:104DD0000D0A0000DDCCBECAD2C81BC797C547C4A8
:104DE00027C338C277C1E1C073C02CC007C001C05F
:104DF00016C043C083C0D4C031C197C102C26EC2C5
:104E0000D8C23DC39BC3EFC336C470C49AC4B4C4F4
:104E1000BCC4B4C49AC470C436C4EFC39BC33DC3FE
:104E2000D8C26EC202C297C131C1D4C083C043C0D0
:104E300016C001C007C02CC073C0E1C077C138C222
:104E400027C347C497C51BC7D2C8BECADDCC30CF65
:104E5000B7D16ED455D769DAA9DD0FE19AE445E8F8
:104E60000DECEDEFE0F3E3F7EFFB000011041D089C
:104E7000200C1310F313BB17661BF11E5722972546
:104E8000AB28922B492ED030233342352E37E538CC
:104E9000693AB93BD93CC83D893E1F3F8D3FD43F5D
:104EA000F93FFF3FEA3FBD3F7D3F2C3FCF3E693E8C
:104EB000FE3D923D283DC33C653C113CCA3B903BC6
:104EC000663B4C3B443B4C3B663B903BCA3B113CF6
:104ED000653CC33C283D923DFE3D693ECF3E2C3FA4
:104EE0007D3FBD3FEA3FFF3FF93FD43F8D3F1F3F2E
:104EF000893EC83DD93CB93B693AE5382E37423541
:104F00002333D030492E922BAB2897255722F11E00
:104F1000661BBB17F3131310200C1D0811040000AF
:104F2000EFFBE3F7E0F3EDEF0DEC45E89AE40FE17A
:104F3000A9DD69DA55D76ED4B7D130CFDDCC443B8B
:104F40004C3B663B903BCA3B113C653CC33C283D17
:104F5000923DFE3D693ECF3E2C3F7D3FBD3FEA3F47
:104F6000FF3FF93FD43F8D3F1F3F893EC83DD93CAD
:104F7000B93B693AE5382E3742352333D030492ED4
:104F8000922BAB2897255722F11E661BBB17F313F4
:104F90001310200C1D0811040000EFFBE3F7E0F3F1
:104FA000EDEF0DEC45E89AE40FE1A9DD69DA55D79C
:104FB0006ED4B7D130CFDDCCBECAD2C81BC797C51F
:104FC00047C427C338C277C1E1C073C02CC007C033
:104FD00001C016C043C083C0D4C031C197C102C252
:104FE0006EC2D8C23DC39BC3EFC336C470C49AC45B
:104FF000B4C4BCC4B4C49AC470C436C4EFC39BC3A5
:105000003DC3D8C26EC202C297C131C1D4C083C0F1
:1050100043C016C001C007C02CC073C0E1C077C137
:1050200038C227C347C497C51BC7D2C8BECADDCC88
:1050300030CFB7D16ED455D769DAA9DD0FE19AE444
:1050400045E80DECEDEFE0F3E3F7EFFB00001104B2
:105050001D08200C1310F313BB17661BF11E5722FB
:105060009725AB28922B492ED030233342352E374B
:10507000E538693AB93BD93CC83D893E1F3F8D3F71
:10508000D43FF93FFF3FEA3FBD3F7D3F2C3FCF3E3E
:10509000693EFE3D923D283DC33C653C113CCA3B08
:1050A000903B663B4C3B443BDDCC30CFB7D16ED41C
:1050B00055D769DAA9DD0FE19AE445E80DECEDEF8B
:1050C000E0F3E3F7EFFB000011041D08200C1310C0
:1050D000F313BB17661BF11E57229725AB28922BA3
:1050E000492ED030233342352E37E538693AB93B63
:1050F000D93CC83D893E1F3F8D3FD43FF93FFF3F1C
:10510000EA3FBD3F7D3F2C3FCF3E693EFE3D923D95
:10511000283DC33C653C113CCA3B903B663B4C3B45
:10512000443B4C3B663B903BCA3B113C653CC33C1B
:10513000283D923DFE3D693ECF3E2C3F7D3FBD3F29
:10514000EA3FFF3FF93FD43F8D3F1F3F893EC83DB7
:10515000D93CB93B693AE5382E3742352333D03054
:10516000492E922BAB2897255722F11E661BBB17A1
:10517000F3131310200C1D0811040000EFFBE3F7DC
:10518000E0F3EDEF0DEC45E89AE40FE1A9DD69DA13
:1051900055D76ED4B7D130CFDDCCBECAD2C81BC76D
:1051A00097C547C427C338C277C1E1C073C02CC0BC
:1051B00007C001C016C043C083C0D4C031C197C16D
:1051C00002C26EC2D8C23DC39BC3EFC336C470C413
:1051D0009AC4B4C4BCC4B4C49AC470C436C4EFC3C3
:1051E0009BC33DC3D8C26EC202C297C131C1D4C0F5
:1051F00083C043C016C001C007C02CC073C0E1C04B
:1052000077C138C227C347C497C51BC7D2C8BECA17
:10521000DDCC0020EA21CA239E2567272329D32A33
:10522000752C0A2E902F07316F32C7330F35463653
:105230006D3782388639783A573B243CDE3C853DD1
:10524000193E9A3E073F613FA63FD83FF63F0040D8
:10525000F63FD83FA63F613F073F9A3E193E853D46
:10526000DE3C243C573B783A863982386D374636E7
:105270000F35C7336F320731902F0A2E752CD32A82
:10528000232967279E25CA23EA2100200C1E0E1C15
:10529000081AFA17E415C713A4117C0F4E0D1D0B45
:1052A000E808B10677043C020000C4FD89FB4FF911
:1052B00018F7E3F4B2F284F05CEE39EC1CEA06E88D
:1052C000F8E5F2E3F4E100E016DE36DC62DA99D8C4
:1052D000DDD62DD58BD3F6D170D0F9CE91CD39CC8A
:1052E000F1CABAC993C87EC77AC688C5A9C4DCC347
:1052F00022C37BC2E7C166C1F9C09FC05AC028C0A3
:105300000AC000C00AC028C05AC09FC0F9C066C108
:10531000E7C17BC222C3DCC3A9C488C57AC67EC7E5
:1053200093C8BAC9F1CA39CC91CDF9CE70D0F6D1B3
:105330008BD32DD5DDD699D862DA36DC16DE00E0C7
:10534000F4E1F2E3F8E506E81CEA39EC5CEE84F0FF
:10535000B2F2E3F418F74FF989FBC4FD00003C02F8
:105360007704B106E8081D0B4E0D7C0FA411C7137E
:10537000E415FA17081A0E1C0C1E00206D3746366D
:105380000F35C7336F320731902F0A2E752CD32A71
:10539000232967279E25CA23EA2100200C1E0E1C04
:1053A000081AFA17E415C713A4117C0F4E0D1D0B34
:1053B000E808B10677043C020000C4FD89FB4FF900
:1053C00018F7E3F4B2F284F05CEE39EC1CEA06E87C
:1053D000F8E5F2E3F4E100E016DE36DC62DA99D8B3
:1053E000DDD62DD58BD3F6D170D0F9CE91CD39CC79
:1053F000F1CABAC993C87EC77AC688C5A9C4DCC336
:1054000022C37BC2E7C166C1F9C09FC05AC028C091
:105410000AC000C00AC028C05AC09FC0F9C066C1F7
:10542000E7C17BC222C3DCC3A9C488C57AC67EC7D4
:1054300093C8BAC9F1CA39CC91CDF9CE70D0F6D1A2
:105440008BD32DD5DDD699D862DA36DC16DE00E0B6
:10545000F4E1F2E3F8E506E81CEA39EC5CEE84F0EE
:10546000B2F2E3F418F74FF989FBC4FD00003C02E7
:105470007704B106E8081D0B4E0D7C0FA411C7136D
:10548000E415FA17081A0E1C0C1E0020EA21CA2384
:105490009E2567272329D32A752C0A2E902F0731A2
:1054A0006F32C7330F3546366D3782388639783AD2
:1054B000573B243CDE3C853D193E9A3E073F613F09
:1054C000A63FD83FF63F0040F63FD83FA63F613F9A
:1054D000073F9A3E193E853DDE3C243C573B783AD7
:1054E000863982386D37FFFFF3FFCCFF8AFF2EFF2E
:1054F000B7FE26FE7AFDB3FCD1FBD3FABAF984F8E5
:1055000031F7C1F534F488F2BEF0D4EECAEC9EEA6D
:1055100051E8E0E54BE391E0B0DDA6DA73D713D4B0
:1055200085D0C6CCD5C8ADC44BC0ABBBC8B69EB148
:1055300025AC55A625A08B997692D58A8E82817945
:105540007C6F376433578047AE32FF0100FF0001A4
:1055500000FF0101FF000100FF0001FF0002000148
:04556000040305003B
:0455640051020008E8
:04556800290200080C
:10556C0000A24A040101DF050000DF05D007D007C7
:10557C00D007D007D007D007003000002800140057
:10558C00D007AB2980250005403840383C383238EC
:10559C0020380738E737BF3791375B371D37D83698
:1055AC008B363736DA3575350835933415348E33FA
:1055BC00FD326432C03112315930952FC52EE92D90
:1055CC00002D092C032BED29C6288C273E26D92427
:1055DC005B23C0210420211E101CC5192F17321467
:1055EC009510CB0B0000000040018002C0030005A9
:1055FC0040068007C008000A400B800CC00D000F4D
:10560C0040108011C012001440158016C0170019EC
:10561C00401A801BC01C001E401F8020C02100238C
:10562C0040248025C02600284029802AC02B002D2C
:10563C00402E802FC030003240338034C0350037CC
:10564C0040389001E02EA00FF000E0010019C012CC
:10565C00803E30008025C05D803E00033303CD04C6
:10566C00E112B81EE102CD04E102FB00F6000201DA
:04567C000001000029
:0400000508004D0D95
:00000001FF
